{
    "contractName": "IoTDataIntegrity",
    "abi": [
        {
            "anonymous": false,
            "inputs": [
                {
                    "indexed": false,
                    "internalType": "string",
                    "name": "batchId",
                    "type": "string"
                },
                {
                    "indexed": false,
                    "internalType": "string",
                    "name": "timePeriod",
                    "type": "string"
                },
                {
                    "indexed": false,
                    "internalType": "string",
                    "name": "dataHash",
                    "type": "string"
                },
                {
                    "indexed": false,
                    "internalType": "uint256",
                    "name": "timestamp",
                    "type": "uint256"
                }
            ],
            "name": "DataStored",
            "type": "event"
        },
        {
            "inputs": [
                {
                    "internalType": "string",
                    "name": "_batchId",
                    "type": "string"
                }
            ],
            "name": "getBatchRecord",
            "outputs": [
                {
                    "internalType": "string",
                    "name": "",
                    "type": "string"
                },
                {
                    "internalType": "string",
                    "name": "",
                    "type": "string"
                },
                {
                    "internalType": "string",
                    "name": "",
                    "type": "string"
                },
                {
                    "internalType": "uint256",
                    "name": "",
                    "type": "uint256"
                }
            ],
            "stateMutability": "view",
            "type": "function"
        },
        {
            "inputs": [
                {
                    "internalType": "string",
                    "name": "_batchId",
                    "type": "string"
                },
                {
                    "internalType": "string",
                    "name": "_timePeriod",
                    "type": "string"
                },
                {
                    "internalType": "string",
                    "name": "_dataHash",
                    "type": "string"
                }
            ],
            "name": "storeDataHash",
            "outputs": [],
            "stateMutability": "nonpayable",
            "type": "function"
        }
    ],
    "bytecode": "6080806040523460155761075e908161001a8239f35b5f80fdfe60806040526004361015610011575f80fd5b5f3560e01c8063557c0563146104ae57639b251eae1461002f575f80fd5b346104aa5760603660031901126104aa5760043567ffffffffffffffff81116104aa57610060903690600401610597565b60243567ffffffffffffffff81116104aa57610080903690600401610597565b60443567ffffffffffffffff81116104aa576100a0903690600401610597565b90604051926100ae84610559565b808452602084019382855260408101948486526060820190428252604051602081865180838901835e81015f815203019020925180519067ffffffffffffffff82116103085781906101008654610650565b601f8111610451575b50602090601f83116001146103ee575f926103e3575b50508160011b915f199060031b1c19161783555b518051600184019167ffffffffffffffff82116103085781906101568454610650565b601f811161038a575b50602090601f8311600114610327575f9261031c575b50508160011b915f199060031b1c19161790555b60028201955195865167ffffffffffffffff8111610308576101ab8254610650565b601f81116102b7575b506020601f821160011461022c57918161021c969594926003947fac88869750298bebd7a88efdd702354a73a7c715232bf57045431d45beba4f149b5f92610221575b50508160011b915f1990861b1c19161790555b51910155604051938493429285610611565b0390a1005b015190505f806101f7565b601f19821698835f52815f20995f5b81811061029f5750927fac88869750298bebd7a88efdd702354a73a7c715232bf57045431d45beba4f149a600395936001938361021c9b9a999710610288575b505050811b01905561020a565b01515f1983881b60f8161c191690555f808061027b565b838301518c556001909b019a6020938401930161023b565b818111156101b457825f5260205f20601f830160051c9060208410610300575b81601f9101920160051c03905f5b8281106102f35750506101b4565b5f828201556001016102e5565b5f91506102d7565b634e487b7160e01b5f52604160045260245ffd5b015190505f80610175565b5f8581528281209350601f198516905b818110610372575090846001959493921061035a575b505050811b019055610189565b01515f1960f88460031b161c191690555f808061034d565b92936020600181928786015181550195019301610337565b8281111561015f57909150835f5260205f20601f840160051c90602085106103db575b849392601f0160051c82900391015f5b8281106103cb57505061015f565b5f818301558594506001016103bd565b5f91506103ad565b015190505f8061011f565b5f8781528281209350601f198516905b8181106104395750908460019594939210610421575b505050811b018355610133565b01515f1960f88460031b161c191690555f8080610414565b929360206001819287860151815501950193016103fe565b8281111561010957909150855f5260205f20601f840160051c90602085106104a2575b849392601f0160051c82900391015f5b828110610492575050610109565b5f81830155859450600101610484565b5f9150610474565b5f80fd5b346104aa5760203660031901126104aa5760043567ffffffffffffffff81116104aa5760206104e281923690600401610597565b604051928184925191829101835e81015f81520301902060405161050581610559565b61050e82610688565b815261055561051f60018401610688565b9160208101928352600361053560028601610688565b948560408401520154908160608201525192519360405194859485610611565b0390f35b6080810190811067ffffffffffffffff82111761030857604052565b90601f8019910116810190811067ffffffffffffffff82111761030857604052565b81601f820112156104aa5780359067ffffffffffffffff821161030857604051926105cc601f8401601f191660200185610575565b828452602083830101116104aa57815f926020809301838601378301015290565b805180835260209291819084018484015e5f828201840152601f01601f1916010190565b94939261063d60609361062f61064b9460808a5260808a01906105ed565b9088820360208a01526105ed565b9086820360408801526105ed565b930152565b90600182811c9216801561067e575b602083101461066a57565b634e487b7160e01b5f52602260045260245ffd5b91607f169161065f565b9060405191825f82549261069b84610650565b808452936001811690811561070657506001146106c2575b506106c092500383610575565b565b90505f9291925260205f20905f915b8183106106ea5750509060206106c0928201015f6106b3565b60209193508060019154838589010152019101909184926106d1565b9050602092506106c094915060ff191682840152151560051b8201015f6106b356fea26469706673582212204cc726a082ff4eb8bd615672137cb505489a605f8ba2954e882ec0a6ac00292d64736f6c63430008210033",
    "sourcePath": "/Users/jonathanjeshua/AuthentiX/sol smart contract/food_safety.sol",
    "compiler": {
        "name": "solc",
        "version": "0.8.33+commit.64118f21"
    },
    "functionHashes": {
        "getBatchRecord(string)": "557c0563",
        "storeDataHash(string,string,string)": "9b251eae"
    },
    "gasEstimates": {
        "creation": {
            "codeDepositCost": "377200",
            "executionCost": "418",
            "totalCost": "377618"
        },
        "external": {
            "getBatchRecord(string)": "infinite",
            "storeDataHash(string,string,string)": "infinite"
        }
    }
}